{
  "_format": "hh-sol-artifact-1",
  "contractName": "Ticket",
  "sourceName": "contracts/Ticket.sol",
  "abi": [
    {
      "inputs": [
        {
          "internalType": "string",
          "name": "_name",
          "type": "string"
        },
        {
          "internalType": "string",
          "name": "_symbol",
          "type": "string"
        },
        {
          "internalType": "uint256",
          "name": "_price",
          "type": "uint256"
        },
        {
          "internalType": "uint256",
          "name": "_maxTicketsSupply",
          "type": "uint256"
        },
        {
          "internalType": "string",
          "name": "_uri",
          "type": "string"
        },
        {
          "internalType": "address",
          "name": "_eventOwner",
          "type": "address"
        }
      ],
      "stateMutability": "nonpayable",
      "type": "constructor"
    },
    {
      "anonymous": false,
      "inputs": [
        {
          "indexed": true,
          "internalType": "address",
          "name": "owner",
          "type": "address"
        },
        {
          "indexed": true,
          "internalType": "address",
          "name": "approved",
          "type": "address"
        },
        {
          "indexed": true,
          "internalType": "uint256",
          "name": "tokenId",
          "type": "uint256"
        }
      ],
      "name": "Approval",
      "type": "event"
    },
    {
      "anonymous": false,
      "inputs": [
        {
          "indexed": true,
          "internalType": "address",
          "name": "owner",
          "type": "address"
        },
        {
          "indexed": true,
          "internalType": "address",
          "name": "operator",
          "type": "address"
        },
        {
          "indexed": false,
          "internalType": "bool",
          "name": "approved",
          "type": "bool"
        }
      ],
      "name": "ApprovalForAll",
      "type": "event"
    },
    {
      "anonymous": false,
      "inputs": [
        {
          "indexed": false,
          "internalType": "uint256",
          "name": "id",
          "type": "uint256"
        },
        {
          "indexed": false,
          "internalType": "address",
          "name": "owner",
          "type": "address"
        }
      ],
      "name": "TicketMinted",
      "type": "event"
    },
    {
      "anonymous": false,
      "inputs": [
        {
          "indexed": false,
          "internalType": "uint256",
          "name": "id",
          "type": "uint256"
        },
        {
          "indexed": false,
          "internalType": "address",
          "name": "owner",
          "type": "address"
        },
        {
          "indexed": false,
          "internalType": "uint256",
          "name": "price",
          "type": "uint256"
        }
      ],
      "name": "TicketSold",
      "type": "event"
    },
    {
      "anonymous": false,
      "inputs": [
        {
          "indexed": true,
          "internalType": "address",
          "name": "from",
          "type": "address"
        },
        {
          "indexed": true,
          "internalType": "address",
          "name": "to",
          "type": "address"
        },
        {
          "indexed": true,
          "internalType": "uint256",
          "name": "tokenId",
          "type": "uint256"
        }
      ],
      "name": "Transfer",
      "type": "event"
    },
    {
      "inputs": [],
      "name": "_ticketIds",
      "outputs": [
        {
          "internalType": "uint256",
          "name": "_value",
          "type": "uint256"
        }
      ],
      "stateMutability": "view",
      "type": "function"
    },
    {
      "inputs": [
        {
          "internalType": "address",
          "name": "to",
          "type": "address"
        },
        {
          "internalType": "uint256",
          "name": "tokenId",
          "type": "uint256"
        }
      ],
      "name": "approve",
      "outputs": [],
      "stateMutability": "nonpayable",
      "type": "function"
    },
    {
      "inputs": [
        {
          "internalType": "address",
          "name": "owner",
          "type": "address"
        }
      ],
      "name": "balanceOf",
      "outputs": [
        {
          "internalType": "uint256",
          "name": "",
          "type": "uint256"
        }
      ],
      "stateMutability": "view",
      "type": "function"
    },
    {
      "inputs": [],
      "name": "eventOwner",
      "outputs": [
        {
          "internalType": "address",
          "name": "",
          "type": "address"
        }
      ],
      "stateMutability": "view",
      "type": "function"
    },
    {
      "inputs": [
        {
          "internalType": "uint256",
          "name": "tokenId",
          "type": "uint256"
        }
      ],
      "name": "getApproved",
      "outputs": [
        {
          "internalType": "address",
          "name": "",
          "type": "address"
        }
      ],
      "stateMutability": "view",
      "type": "function"
    },
    {
      "inputs": [
        {
          "internalType": "address",
          "name": "owner",
          "type": "address"
        },
        {
          "internalType": "address",
          "name": "operator",
          "type": "address"
        }
      ],
      "name": "isApprovedForAll",
      "outputs": [
        {
          "internalType": "bool",
          "name": "",
          "type": "bool"
        }
      ],
      "stateMutability": "view",
      "type": "function"
    },
    {
      "inputs": [],
      "name": "maxTicketsSupply",
      "outputs": [
        {
          "internalType": "uint256",
          "name": "",
          "type": "uint256"
        }
      ],
      "stateMutability": "view",
      "type": "function"
    },
    {
      "inputs": [],
      "name": "mintTicket",
      "outputs": [],
      "stateMutability": "payable",
      "type": "function"
    },
    {
      "inputs": [],
      "name": "name",
      "outputs": [
        {
          "internalType": "string",
          "name": "",
          "type": "string"
        }
      ],
      "stateMutability": "view",
      "type": "function"
    },
    {
      "inputs": [
        {
          "internalType": "uint256",
          "name": "tokenId",
          "type": "uint256"
        }
      ],
      "name": "ownerOf",
      "outputs": [
        {
          "internalType": "address",
          "name": "",
          "type": "address"
        }
      ],
      "stateMutability": "view",
      "type": "function"
    },
    {
      "inputs": [],
      "name": "price",
      "outputs": [
        {
          "internalType": "uint256",
          "name": "",
          "type": "uint256"
        }
      ],
      "stateMutability": "view",
      "type": "function"
    },
    {
      "inputs": [
        {
          "internalType": "address",
          "name": "from",
          "type": "address"
        },
        {
          "internalType": "address",
          "name": "to",
          "type": "address"
        },
        {
          "internalType": "uint256",
          "name": "tokenId",
          "type": "uint256"
        }
      ],
      "name": "safeTransferFrom",
      "outputs": [],
      "stateMutability": "nonpayable",
      "type": "function"
    },
    {
      "inputs": [
        {
          "internalType": "address",
          "name": "from",
          "type": "address"
        },
        {
          "internalType": "address",
          "name": "to",
          "type": "address"
        },
        {
          "internalType": "uint256",
          "name": "tokenId",
          "type": "uint256"
        },
        {
          "internalType": "bytes",
          "name": "data",
          "type": "bytes"
        }
      ],
      "name": "safeTransferFrom",
      "outputs": [],
      "stateMutability": "nonpayable",
      "type": "function"
    },
    {
      "inputs": [
        {
          "internalType": "address",
          "name": "operator",
          "type": "address"
        },
        {
          "internalType": "bool",
          "name": "approved",
          "type": "bool"
        }
      ],
      "name": "setApprovalForAll",
      "outputs": [],
      "stateMutability": "nonpayable",
      "type": "function"
    },
    {
      "inputs": [
        {
          "internalType": "bytes4",
          "name": "interfaceId",
          "type": "bytes4"
        }
      ],
      "name": "supportsInterface",
      "outputs": [
        {
          "internalType": "bool",
          "name": "",
          "type": "bool"
        }
      ],
      "stateMutability": "view",
      "type": "function"
    },
    {
      "inputs": [],
      "name": "symbol",
      "outputs": [
        {
          "internalType": "string",
          "name": "",
          "type": "string"
        }
      ],
      "stateMutability": "view",
      "type": "function"
    },
    {
      "inputs": [
        {
          "internalType": "uint256",
          "name": "tokenId",
          "type": "uint256"
        }
      ],
      "name": "tokenURI",
      "outputs": [
        {
          "internalType": "string",
          "name": "",
          "type": "string"
        }
      ],
      "stateMutability": "view",
      "type": "function"
    },
    {
      "inputs": [
        {
          "internalType": "address",
          "name": "from",
          "type": "address"
        },
        {
          "internalType": "address",
          "name": "to",
          "type": "address"
        },
        {
          "internalType": "uint256",
          "name": "tokenId",
          "type": "uint256"
        }
      ],
      "name": "transferFrom",
      "outputs": [],
      "stateMutability": "nonpayable",
      "type": "function"
    },
    {
      "inputs": [],
      "name": "uri",
      "outputs": [
        {
          "internalType": "string",
          "name": "",
          "type": "string"
        }
      ],
      "stateMutability": "view",
      "type": "function"
    }
  ],
  "bytecode": "0x60806040523480156200001157600080fd5b50604051620032b0380380620032b08339818101604052810190620000379190620002ff565b858581600090816200004a919062000639565b5080600190816200005c919062000639565b505050836007819055508260088190555081600990816200007e919062000639565b5080600a60006101000a81548173ffffffffffffffffffffffffffffffffffffffff021916908373ffffffffffffffffffffffffffffffffffffffff16021790555050505050505062000720565b6000604051905090565b600080fd5b600080fd5b600080fd5b600080fd5b6000601f19601f8301169050919050565b7f4e487b7100000000000000000000000000000000000000000000000000000000600052604160045260246000fd5b6200013582620000ea565b810181811067ffffffffffffffff82111715620001575762000156620000fb565b5b80604052505050565b60006200016c620000cc565b90506200017a82826200012a565b919050565b600067ffffffffffffffff8211156200019d576200019c620000fb565b5b620001a882620000ea565b9050602081019050919050565b60005b83811015620001d5578082015181840152602081019050620001b8565b60008484015250505050565b6000620001f8620001f2846200017f565b62000160565b905082815260208101848484011115620002175762000216620000e5565b5b62000224848285620001b5565b509392505050565b600082601f830112620002445762000243620000e0565b5b815162000256848260208601620001e1565b91505092915050565b6000819050919050565b62000274816200025f565b81146200028057600080fd5b50565b600081519050620002948162000269565b92915050565b600073ffffffffffffffffffffffffffffffffffffffff82169050919050565b6000620002c7826200029a565b9050919050565b620002d981620002ba565b8114620002e557600080fd5b50565b600081519050620002f981620002ce565b92915050565b60008060008060008060c087890312156200031f576200031e620000d6565b5b600087015167ffffffffffffffff81111562000340576200033f620000db565b5b6200034e89828a016200022c565b965050602087015167ffffffffffffffff811115620003725762000371620000db565b5b6200038089828a016200022c565b95505060406200039389828a0162000283565b9450506060620003a689828a0162000283565b935050608087015167ffffffffffffffff811115620003ca57620003c9620000db565b5b620003d889828a016200022c565b92505060a0620003eb89828a01620002e8565b9150509295509295509295565b600081519050919050565b7f4e487b7100000000000000000000000000000000000000000000000000000000600052602260045260246000fd5b600060028204905060018216806200044b57607f821691505b60208210810362000461576200046062000403565b5b50919050565b60008190508160005260206000209050919050565b60006020601f8301049050919050565b600082821b905092915050565b600060088302620004cb7fffffffffffffffffffffffffffffffffffffffffffffffffffffffffffffffff826200048c565b620004d786836200048c565b95508019841693508086168417925050509392505050565b6000819050919050565b60006200051a620005146200050e846200025f565b620004ef565b6200025f565b9050919050565b6000819050919050565b6200053683620004f9565b6200054e620005458262000521565b84845462000499565b825550505050565b600090565b6200056562000556565b620005728184846200052b565b505050565b5b818110156200059a576200058e6000826200055b565b60018101905062000578565b5050565b601f821115620005e957620005b38162000467565b620005be846200047c565b81016020851015620005ce578190505b620005e6620005dd856200047c565b83018262000577565b50505b505050565b600082821c905092915050565b60006200060e60001984600802620005ee565b1980831691505092915050565b6000620006298383620005fb565b9150826002028217905092915050565b6200064482620003f8565b67ffffffffffffffff81111562000660576200065f620000fb565b5b6200066c825462000432565b620006798282856200059e565b600060209050601f831160018114620006b157600084156200069c578287015190505b620006a885826200061b565b86555062000718565b601f198416620006c18662000467565b60005b82811015620006eb57848901518255600182019150602085019450602081019050620006c4565b868310156200070b578489015162000707601f891682620005fb565b8355505b6001600288020188555050505b505050505050565b612b8080620007306000396000f3fe6080604052600436106101145760003560e01c8063573c80fa116100a0578063a22cb46511610064578063a22cb46514610394578063b88d4fde146103bd578063c87b56dd146103e6578063e985e9c514610423578063eac989f81461046057610114565b8063573c80fa146102ba5780636352211e146102c457806370a082311461030157806395d89b411461033e578063a035b1fe1461036957610114565b8063095ea7b3116100e7578063095ea7b3146101e9578063202141341461021257806323b872dd1461023d57806342842e0e14610266578063548f8b511461028f57610114565b806301ffc9a71461011957806306fdde0314610156578063081812fc1461018157806308648d87146101be575b600080fd5b34801561012557600080fd5b50610140600480360381019061013b9190611c78565b61048b565b60405161014d9190611cc0565b60405180910390f35b34801561016257600080fd5b5061016b61056d565b6040516101789190611d6b565b60405180910390f35b34801561018d57600080fd5b506101a860048036038101906101a39190611dc3565b6105ff565b6040516101b59190611e31565b60405180910390f35b3480156101ca57600080fd5b506101d3610645565b6040516101e09190611e5b565b60405180910390f35b3480156101f557600080fd5b50610210600480360381019061020b9190611ea2565b61064b565b005b34801561021e57600080fd5b50610227610762565b6040516102349190611e31565b60405180910390f35b34801561024957600080fd5b50610264600480360381019061025f9190611ee2565b610788565b005b34801561027257600080fd5b5061028d60048036038101906102889190611ee2565b6107e8565b005b34801561029b57600080fd5b506102a4610808565b6040516102b19190611e5b565b60405180910390f35b6102c2610814565b005b3480156102d057600080fd5b506102eb60048036038101906102e69190611dc3565b61099c565b6040516102f89190611e31565b60405180910390f35b34801561030d57600080fd5b5061032860048036038101906103239190611f35565b610a22565b6040516103359190611e5b565b60405180910390f35b34801561034a57600080fd5b50610353610ad9565b6040516103609190611d6b565b60405180910390f35b34801561037557600080fd5b5061037e610b6b565b60405161038b9190611e5b565b60405180910390f35b3480156103a057600080fd5b506103bb60048036038101906103b69190611f8e565b610b71565b005b3480156103c957600080fd5b506103e460048036038101906103df9190612103565b610b87565b005b3480156103f257600080fd5b5061040d60048036038101906104089190611dc3565b610be9565b60405161041a9190611d6b565b60405180910390f35b34801561042f57600080fd5b5061044a60048036038101906104459190612186565b610c51565b6040516104579190611cc0565b60405180910390f35b34801561046c57600080fd5b50610475610ce5565b6040516104829190611d6b565b60405180910390f35b60007f80ac58cd000000000000000000000000000000000000000000000000000000007bffffffffffffffffffffffffffffffffffffffffffffffffffffffff1916827bffffffffffffffffffffffffffffffffffffffffffffffffffffffff1916148061055657507f5b5e139f000000000000000000000000000000000000000000000000000000007bffffffffffffffffffffffffffffffffffffffffffffffffffffffff1916827bffffffffffffffffffffffffffffffffffffffffffffffffffffffff1916145b80610566575061056582610d73565b5b9050919050565b60606000805461057c906121f5565b80601f01602080910402602001604051908101604052809291908181526020018280546105a8906121f5565b80156105f55780601f106105ca576101008083540402835291602001916105f5565b820191906000526020600020905b8154815290600101906020018083116105d857829003601f168201915b5050505050905090565b600061060a82610ddd565b6004600083815260200190815260200160002060009054906101000a900473ffffffffffffffffffffffffffffffffffffffff169050919050565b60085481565b60006106568261099c565b90508073ffffffffffffffffffffffffffffffffffffffff168373ffffffffffffffffffffffffffffffffffffffff16036106c6576040517f08c379a00000000000000000000000000000000000000000000000000000000081526004016106bd90612298565b60405180910390fd5b8073ffffffffffffffffffffffffffffffffffffffff166106e5610e28565b73ffffffffffffffffffffffffffffffffffffffff16148061071457506107138161070e610e28565b610c51565b5b610753576040517f08c379a000000000000000000000000000000000000000000000000000000000815260040161074a9061232a565b60405180910390fd5b61075d8383610e30565b505050565b600a60009054906101000a900473ffffffffffffffffffffffffffffffffffffffff1681565b610799610793610e28565b82610ee9565b6107d8576040517f08c379a00000000000000000000000000000000000000000000000000000000081526004016107cf906123bc565b60405180910390fd5b6107e3838383610f7e565b505050565b61080383838360405180602001604052806000815250610b87565b505050565b60068060000154905081565b6008546108216006611277565b1061082b57600080fd5b600754341461086f576040517f08c379a00000000000000000000000000000000000000000000000000000000081526004016108669061244e565b60405180910390fd5b6000600a60009054906101000a900473ffffffffffffffffffffffffffffffffffffffff1673ffffffffffffffffffffffffffffffffffffffff16346040516108b79061249f565b60006040518083038185875af1925050503d80600081146108f4576040519150601f19603f3d011682016040523d82523d6000602084013e6108f9565b606091505b505090508061093d576040517f08c379a000000000000000000000000000000000000000000000000000000000815260040161093490612500565b60405180910390fd5b60006109496006611277565b90506109553382611285565b7f21c3ad7994b754affe27828ad7ab1f306d7a99ab4dbc743ed56d2b2f82620b448133604051610986929190612520565b60405180910390a161099860066114a2565b5050565b6000806109a8836114b8565b9050600073ffffffffffffffffffffffffffffffffffffffff168173ffffffffffffffffffffffffffffffffffffffff1603610a19576040517f08c379a0000000000000000000000000000000000000000000000000000000008152600401610a1090612595565b60405180910390fd5b80915050919050565b60008073ffffffffffffffffffffffffffffffffffffffff168273ffffffffffffffffffffffffffffffffffffffff1603610a92576040517f08c379a0000000000000000000000000000000000000000000000000000000008152600401610a8990612627565b60405180910390fd5b600360008373ffffffffffffffffffffffffffffffffffffffff1673ffffffffffffffffffffffffffffffffffffffff168152602001908152602001600020549050919050565b606060018054610ae8906121f5565b80601f0160208091040260200160405190810160405280929190818152602001828054610b14906121f5565b8015610b615780601f10610b3657610100808354040283529160200191610b61565b820191906000526020600020905b815481529060010190602001808311610b4457829003601f168201915b5050505050905090565b60075481565b610b83610b7c610e28565b83836114f5565b5050565b610b98610b92610e28565b83610ee9565b610bd7576040517f08c379a0000000000000000000000000000000000000000000000000000000008152600401610bce906123bc565b60405180910390fd5b610be384848484611661565b50505050565b6060610bf482610ddd565b6000610bfe6116bd565b90506000815111610c1e5760405180602001604052806000815250610c49565b80610c28846116d4565b604051602001610c39929190612683565b6040516020818303038152906040525b915050919050565b6000600560008473ffffffffffffffffffffffffffffffffffffffff1673ffffffffffffffffffffffffffffffffffffffff16815260200190815260200160002060008373ffffffffffffffffffffffffffffffffffffffff1673ffffffffffffffffffffffffffffffffffffffff16815260200190815260200160002060009054906101000a900460ff16905092915050565b60098054610cf2906121f5565b80601f0160208091040260200160405190810160405280929190818152602001828054610d1e906121f5565b8015610d6b5780601f10610d4057610100808354040283529160200191610d6b565b820191906000526020600020905b815481529060010190602001808311610d4e57829003601f168201915b505050505081565b60007f01ffc9a7000000000000000000000000000000000000000000000000000000007bffffffffffffffffffffffffffffffffffffffffffffffffffffffff1916827bffffffffffffffffffffffffffffffffffffffffffffffffffffffff1916149050919050565b610de6816117a2565b610e25576040517f08c379a0000000000000000000000000000000000000000000000000000000008152600401610e1c90612595565b60405180910390fd5b50565b600033905090565b816004600083815260200190815260200160002060006101000a81548173ffffffffffffffffffffffffffffffffffffffff021916908373ffffffffffffffffffffffffffffffffffffffff160217905550808273ffffffffffffffffffffffffffffffffffffffff16610ea38361099c565b73ffffffffffffffffffffffffffffffffffffffff167f8c5be1e5ebec7d5bd14f71427d1e84f3dd0314c0f7b2291e5b200ac8c7c3b92560405160405180910390a45050565b600080610ef58361099c565b90508073ffffffffffffffffffffffffffffffffffffffff168473ffffffffffffffffffffffffffffffffffffffff161480610f375750610f368185610c51565b5b80610f7557508373ffffffffffffffffffffffffffffffffffffffff16610f5d846105ff565b73ffffffffffffffffffffffffffffffffffffffff16145b91505092915050565b8273ffffffffffffffffffffffffffffffffffffffff16610f9e8261099c565b73ffffffffffffffffffffffffffffffffffffffff1614610ff4576040517f08c379a0000000000000000000000000000000000000000000000000000000008152600401610feb90612719565b60405180910390fd5b600073ffffffffffffffffffffffffffffffffffffffff168273ffffffffffffffffffffffffffffffffffffffff1603611063576040517f08c379a000000000000000000000000000000000000000000000000000000000815260040161105a906127ab565b60405180910390fd5b61107083838360016117e3565b8273ffffffffffffffffffffffffffffffffffffffff166110908261099c565b73ffffffffffffffffffffffffffffffffffffffff16146110e6576040517f08c379a00000000000000000000000000000000000000000000000000000000081526004016110dd90612719565b60405180910390fd5b6004600082815260200190815260200160002060006101000a81549073ffffffffffffffffffffffffffffffffffffffff02191690556001600360008573ffffffffffffffffffffffffffffffffffffffff1673ffffffffffffffffffffffffffffffffffffffff168152602001908152602001600020600082825403925050819055506001600360008473ffffffffffffffffffffffffffffffffffffffff1673ffffffffffffffffffffffffffffffffffffffff16815260200190815260200160002060008282540192505081905550816002600083815260200190815260200160002060006101000a81548173ffffffffffffffffffffffffffffffffffffffff021916908373ffffffffffffffffffffffffffffffffffffffff160217905550808273ffffffffffffffffffffffffffffffffffffffff168473ffffffffffffffffffffffffffffffffffffffff167fddf252ad1be2c89b69c2b068fc378daa952ba7f163c4a11628f55a4df523b3ef60405160405180910390a46112728383836001611909565b505050565b600081600001549050919050565b600073ffffffffffffffffffffffffffffffffffffffff168273ffffffffffffffffffffffffffffffffffffffff16036112f4576040517f08c379a00000000000000000000000000000000000000000000000000000000081526004016112eb90612817565b60405180910390fd5b6112fd816117a2565b1561133d576040517f08c379a000000000000000000000000000000000000000000000000000000000815260040161133490612883565b60405180910390fd5b61134b6000838360016117e3565b611354816117a2565b15611394576040517f08c379a000000000000000000000000000000000000000000000000000000000815260040161138b90612883565b60405180910390fd5b6001600360008473ffffffffffffffffffffffffffffffffffffffff1673ffffffffffffffffffffffffffffffffffffffff16815260200190815260200160002060008282540192505081905550816002600083815260200190815260200160002060006101000a81548173ffffffffffffffffffffffffffffffffffffffff021916908373ffffffffffffffffffffffffffffffffffffffff160217905550808273ffffffffffffffffffffffffffffffffffffffff16600073ffffffffffffffffffffffffffffffffffffffff167fddf252ad1be2c89b69c2b068fc378daa952ba7f163c4a11628f55a4df523b3ef60405160405180910390a461149e600083836001611909565b5050565b6001816000016000828254019250508190555050565b60006002600083815260200190815260200160002060009054906101000a900473ffffffffffffffffffffffffffffffffffffffff169050919050565b8173ffffffffffffffffffffffffffffffffffffffff168373ffffffffffffffffffffffffffffffffffffffff1603611563576040517f08c379a000000000000000000000000000000000000000000000000000000000815260040161155a906128ef565b60405180910390fd5b80600560008573ffffffffffffffffffffffffffffffffffffffff1673ffffffffffffffffffffffffffffffffffffffff16815260200190815260200160002060008473ffffffffffffffffffffffffffffffffffffffff1673ffffffffffffffffffffffffffffffffffffffff16815260200190815260200160002060006101000a81548160ff0219169083151502179055508173ffffffffffffffffffffffffffffffffffffffff168373ffffffffffffffffffffffffffffffffffffffff167f17307eab39ab6107e8899845ad3d59bd9653f200f220920489ca2b5937696c31836040516116549190611cc0565b60405180910390a3505050565b61166c848484610f7e565b6116788484848461190f565b6116b7576040517f08c379a00000000000000000000000000000000000000000000000000000000081526004016116ae90612981565b60405180910390fd5b50505050565b606060405180602001604052806000815250905090565b6060600060016116e384611a96565b01905060008167ffffffffffffffff81111561170257611701611fd8565b5b6040519080825280601f01601f1916602001820160405280156117345781602001600182028036833780820191505090505b509050600082602001820190505b600115611797578080600190039150507f3031323334353637383961626364656600000000000000000000000000000000600a86061a8153600a858161178b5761178a6129a1565b5b04945060008503611742575b819350505050919050565b60008073ffffffffffffffffffffffffffffffffffffffff166117c4836114b8565b73ffffffffffffffffffffffffffffffffffffffff1614159050919050565b600181111561190357600073ffffffffffffffffffffffffffffffffffffffff168473ffffffffffffffffffffffffffffffffffffffff16146118775780600360008673ffffffffffffffffffffffffffffffffffffffff1673ffffffffffffffffffffffffffffffffffffffff168152602001908152602001600020600082825461186f91906129ff565b925050819055505b600073ffffffffffffffffffffffffffffffffffffffff168373ffffffffffffffffffffffffffffffffffffffff16146119025780600360008573ffffffffffffffffffffffffffffffffffffffff1673ffffffffffffffffffffffffffffffffffffffff16815260200190815260200160002060008282546118fa9190612a33565b925050819055505b5b50505050565b50505050565b60006119308473ffffffffffffffffffffffffffffffffffffffff16611be9565b15611a89578373ffffffffffffffffffffffffffffffffffffffff1663150b7a02611959610e28565b8786866040518563ffffffff1660e01b815260040161197b9493929190612abc565b6020604051808303816000875af19250505080156119b757506040513d601f19601f820116820180604052508101906119b49190612b1d565b60015b611a39573d80600081146119e7576040519150601f19603f3d011682016040523d82523d6000602084013e6119ec565b606091505b506000815103611a31576040517f08c379a0000000000000000000000000000000000000000000000000000000008152600401611a2890612981565b60405180910390fd5b805181602001fd5b63150b7a0260e01b7bffffffffffffffffffffffffffffffffffffffffffffffffffffffff1916817bffffffffffffffffffffffffffffffffffffffffffffffffffffffff191614915050611a8e565b600190505b949350505050565b600080600090507a184f03e93ff9f4daa797ed6e38ed64bf6a1f0100000000000000008310611af4577a184f03e93ff9f4daa797ed6e38ed64bf6a1f0100000000000000008381611aea57611ae96129a1565b5b0492506040810190505b6d04ee2d6d415b85acef81000000008310611b31576d04ee2d6d415b85acef81000000008381611b2757611b266129a1565b5b0492506020810190505b662386f26fc100008310611b6057662386f26fc100008381611b5657611b556129a1565b5b0492506010810190505b6305f5e1008310611b89576305f5e1008381611b7f57611b7e6129a1565b5b0492506008810190505b6127108310611bae576127108381611ba457611ba36129a1565b5b0492506004810190505b60648310611bd15760648381611bc757611bc66129a1565b5b0492506002810190505b600a8310611be0576001810190505b80915050919050565b6000808273ffffffffffffffffffffffffffffffffffffffff163b119050919050565b6000604051905090565b600080fd5b600080fd5b60007fffffffff0000000000000000000000000000000000000000000000000000000082169050919050565b611c5581611c20565b8114611c6057600080fd5b50565b600081359050611c7281611c4c565b92915050565b600060208284031215611c8e57611c8d611c16565b5b6000611c9c84828501611c63565b91505092915050565b60008115159050919050565b611cba81611ca5565b82525050565b6000602082019050611cd56000830184611cb1565b92915050565b600081519050919050565b600082825260208201905092915050565b60005b83811015611d15578082015181840152602081019050611cfa565b60008484015250505050565b6000601f19601f8301169050919050565b6000611d3d82611cdb565b611d478185611ce6565b9350611d57818560208601611cf7565b611d6081611d21565b840191505092915050565b60006020820190508181036000830152611d858184611d32565b905092915050565b6000819050919050565b611da081611d8d565b8114611dab57600080fd5b50565b600081359050611dbd81611d97565b92915050565b600060208284031215611dd957611dd8611c16565b5b6000611de784828501611dae565b91505092915050565b600073ffffffffffffffffffffffffffffffffffffffff82169050919050565b6000611e1b82611df0565b9050919050565b611e2b81611e10565b82525050565b6000602082019050611e466000830184611e22565b92915050565b611e5581611d8d565b82525050565b6000602082019050611e706000830184611e4c565b92915050565b611e7f81611e10565b8114611e8a57600080fd5b50565b600081359050611e9c81611e76565b92915050565b60008060408385031215611eb957611eb8611c16565b5b6000611ec785828601611e8d565b9250506020611ed885828601611dae565b9150509250929050565b600080600060608486031215611efb57611efa611c16565b5b6000611f0986828701611e8d565b9350506020611f1a86828701611e8d565b9250506040611f2b86828701611dae565b9150509250925092565b600060208284031215611f4b57611f4a611c16565b5b6000611f5984828501611e8d565b91505092915050565b611f6b81611ca5565b8114611f7657600080fd5b50565b600081359050611f8881611f62565b92915050565b60008060408385031215611fa557611fa4611c16565b5b6000611fb385828601611e8d565b9250506020611fc485828601611f79565b9150509250929050565b600080fd5b600080fd5b7f4e487b7100000000000000000000000000000000000000000000000000000000600052604160045260246000fd5b61201082611d21565b810181811067ffffffffffffffff8211171561202f5761202e611fd8565b5b80604052505050565b6000612042611c0c565b905061204e8282612007565b919050565b600067ffffffffffffffff82111561206e5761206d611fd8565b5b61207782611d21565b9050602081019050919050565b82818337600083830152505050565b60006120a66120a184612053565b612038565b9050828152602081018484840111156120c2576120c1611fd3565b5b6120cd848285612084565b509392505050565b600082601f8301126120ea576120e9611fce565b5b81356120fa848260208601612093565b91505092915050565b6000806000806080858703121561211d5761211c611c16565b5b600061212b87828801611e8d565b945050602061213c87828801611e8d565b935050604061214d87828801611dae565b925050606085013567ffffffffffffffff81111561216e5761216d611c1b565b5b61217a878288016120d5565b91505092959194509250565b6000806040838503121561219d5761219c611c16565b5b60006121ab85828601611e8d565b92505060206121bc85828601611e8d565b9150509250929050565b7f4e487b7100000000000000000000000000000000000000000000000000000000600052602260045260246000fd5b6000600282049050600182168061220d57607f821691505b6020821081036122205761221f6121c6565b5b50919050565b7f4552433732313a20617070726f76616c20746f2063757272656e74206f776e6560008201527f7200000000000000000000000000000000000000000000000000000000000000602082015250565b6000612282602183611ce6565b915061228d82612226565b604082019050919050565b600060208201905081810360008301526122b181612275565b9050919050565b7f4552433732313a20617070726f76652063616c6c6572206973206e6f7420746f60008201527f6b656e206f776e6572206f7220617070726f76656420666f7220616c6c000000602082015250565b6000612314603d83611ce6565b915061231f826122b8565b604082019050919050565b6000602082019050818103600083015261234381612307565b9050919050565b7f4552433732313a2063616c6c6572206973206e6f7420746f6b656e206f776e6560008201527f72206f7220617070726f76656400000000000000000000000000000000000000602082015250565b60006123a6602d83611ce6565b91506123b18261234a565b604082019050919050565b600060208201905081810360008301526123d581612399565b9050919050565b7f596f75206d7573742073656e6420746865207469636b6574207072696365207660008201527f616c756500000000000000000000000000000000000000000000000000000000602082015250565b6000612438602483611ce6565b9150612443826123dc565b604082019050919050565b600060208201905081810360008301526124678161242b565b9050919050565b600081905092915050565b50565b600061248960008361246e565b915061249482612479565b600082019050919050565b60006124aa8261247c565b9150819050919050565b7f5472616e73616374696f6e206661696c65640000000000000000000000000000600082015250565b60006124ea601283611ce6565b91506124f5826124b4565b602082019050919050565b60006020820190508181036000830152612519816124dd565b9050919050565b60006040820190506125356000830185611e4c565b6125426020830184611e22565b9392505050565b7f4552433732313a20696e76616c696420746f6b656e2049440000000000000000600082015250565b600061257f601883611ce6565b915061258a82612549565b602082019050919050565b600060208201905081810360008301526125ae81612572565b9050919050565b7f4552433732313a2061646472657373207a65726f206973206e6f74206120766160008201527f6c6964206f776e65720000000000000000000000000000000000000000000000602082015250565b6000612611602983611ce6565b915061261c826125b5565b604082019050919050565b6000602082019050818103600083015261264081612604565b9050919050565b600081905092915050565b600061265d82611cdb565b6126678185612647565b9350612677818560208601611cf7565b80840191505092915050565b600061268f8285612652565b915061269b8284612652565b91508190509392505050565b7f4552433732313a207472616e736665722066726f6d20696e636f72726563742060008201527f6f776e6572000000000000000000000000000000000000000000000000000000602082015250565b6000612703602583611ce6565b915061270e826126a7565b604082019050919050565b60006020820190508181036000830152612732816126f6565b9050919050565b7f4552433732313a207472616e7366657220746f20746865207a65726f2061646460008201527f7265737300000000000000000000000000000000000000000000000000000000602082015250565b6000612795602483611ce6565b91506127a082612739565b604082019050919050565b600060208201905081810360008301526127c481612788565b9050919050565b7f4552433732313a206d696e7420746f20746865207a65726f2061646472657373600082015250565b6000612801602083611ce6565b915061280c826127cb565b602082019050919050565b60006020820190508181036000830152612830816127f4565b9050919050565b7f4552433732313a20746f6b656e20616c7265616479206d696e74656400000000600082015250565b600061286d601c83611ce6565b915061287882612837565b602082019050919050565b6000602082019050818103600083015261289c81612860565b9050919050565b7f4552433732313a20617070726f766520746f2063616c6c657200000000000000600082015250565b60006128d9601983611ce6565b91506128e4826128a3565b602082019050919050565b60006020820190508181036000830152612908816128cc565b9050919050565b7f4552433732313a207472616e7366657220746f206e6f6e20455243373231526560008201527f63656976657220696d706c656d656e7465720000000000000000000000000000602082015250565b600061296b603283611ce6565b91506129768261290f565b604082019050919050565b6000602082019050818103600083015261299a8161295e565b9050919050565b7f4e487b7100000000000000000000000000000000000000000000000000000000600052601260045260246000fd5b7f4e487b7100000000000000000000000000000000000000000000000000000000600052601160045260246000fd5b6000612a0a82611d8d565b9150612a1583611d8d565b9250828203905081811115612a2d57612a2c6129d0565b5b92915050565b6000612a3e82611d8d565b9150612a4983611d8d565b9250828201905080821115612a6157612a606129d0565b5b92915050565b600081519050919050565b600082825260208201905092915050565b6000612a8e82612a67565b612a988185612a72565b9350612aa8818560208601611cf7565b612ab181611d21565b840191505092915050565b6000608082019050612ad16000830187611e22565b612ade6020830186611e22565b612aeb6040830185611e4c565b8181036060830152612afd8184612a83565b905095945050505050565b600081519050612b1781611c4c565b92915050565b600060208284031215612b3357612b32611c16565b5b6000612b4184828501612b08565b9150509291505056fea2646970667358221220844289b97e308edfe299bf270530a067b29775cd9749d93f7ac08c954e8112fa64736f6c63430008110033",
  "linkReferences": {},
  "deployedLinkReferences": {}
}